{
  "contractName": "EncodeTester",
  "abi": [
    {
      "constant": true,
      "inputs": [
        {
          "name": "a",
          "type": "address"
        },
        {
          "name": "b",
          "type": "uint256"
        },
        {
          "name": "c",
          "type": "string"
        }
      ],
      "name": "encodePackedTest",
      "outputs": [
        {
          "name": "",
          "type": "bytes32"
        },
        {
          "name": "",
          "type": "bytes32"
        }
      ],
      "payable": false,
      "stateMutability": "pure",
      "type": "function"
    },
    {
      "constant": true,
      "inputs": [
        {
          "name": "value",
          "type": "uint256"
        },
        {
          "name": "fake",
          "type": "bool"
        },
        {
          "name": "secret",
          "type": "string"
        }
      ],
      "name": "encodePackedTest2",
      "outputs": [
        {
          "name": "",
          "type": "bytes32"
        },
        {
          "name": "",
          "type": "bytes32"
        }
      ],
      "payable": false,
      "stateMutability": "pure",
      "type": "function"
    },
    {
      "constant": true,
      "inputs": [
        {
          "name": "value",
          "type": "uint256"
        },
        {
          "name": "fake",
          "type": "bool"
        },
        {
          "name": "secret",
          "type": "bytes32"
        }
      ],
      "name": "encodePackedTest3",
      "outputs": [
        {
          "name": "",
          "type": "bytes32"
        },
        {
          "name": "",
          "type": "bytes32"
        }
      ],
      "payable": false,
      "stateMutability": "pure",
      "type": "function"
    },
    {
      "constant": true,
      "inputs": [
        {
          "name": "value",
          "type": "uint256"
        },
        {
          "name": "fake",
          "type": "bool"
        },
        {
          "name": "secret",
          "type": "address"
        }
      ],
      "name": "encodePackedTest4",
      "outputs": [
        {
          "name": "",
          "type": "bytes32"
        },
        {
          "name": "",
          "type": "bytes32"
        }
      ],
      "payable": false,
      "stateMutability": "pure",
      "type": "function"
    },
    {
      "constant": true,
      "inputs": [
        {
          "name": "amount",
          "type": "uint256"
        },
        {
          "name": "nonce",
          "type": "uint256"
        }
      ],
      "name": "encodePackedTest5",
      "outputs": [
        {
          "name": "",
          "type": "bytes32"
        },
        {
          "name": "",
          "type": "bytes32"
        }
      ],
      "payable": false,
      "stateMutability": "view",
      "type": "function"
    },
    {
      "constant": true,
      "inputs": [
        {
          "name": "sig",
          "type": "bytes"
        }
      ],
      "name": "splitSignature",
      "outputs": [
        {
          "name": "v",
          "type": "uint8"
        },
        {
          "name": "r",
          "type": "bytes32"
        },
        {
          "name": "s",
          "type": "bytes32"
        }
      ],
      "payable": false,
      "stateMutability": "pure",
      "type": "function"
    },
    {
      "constant": true,
      "inputs": [
        {
          "name": "message",
          "type": "bytes32"
        },
        {
          "name": "sig",
          "type": "bytes"
        }
      ],
      "name": "lengthSignature",
      "outputs": [
        {
          "name": "",
          "type": "uint256"
        },
        {
          "name": "",
          "type": "uint256"
        }
      ],
      "payable": false,
      "stateMutability": "pure",
      "type": "function"
    },
    {
      "constant": true,
      "inputs": [
        {
          "name": "message",
          "type": "bytes32"
        },
        {
          "name": "sig",
          "type": "bytes"
        }
      ],
      "name": "recoverSigner",
      "outputs": [
        {
          "name": "",
          "type": "address"
        }
      ],
      "payable": false,
      "stateMutability": "pure",
      "type": "function"
    },
    {
      "constant": true,
      "inputs": [
        {
          "name": "sig",
          "type": "bytes"
        },
        {
          "name": "message",
          "type": "bytes32"
        }
      ],
      "name": "recoverSigner2",
      "outputs": [
        {
          "name": "",
          "type": "address"
        }
      ],
      "payable": false,
      "stateMutability": "pure",
      "type": "function"
    }
  ],
  "bytecode": "0x608060405234801561001057600080fd5b5061101c806100206000396000f300608060405260043610610098576000357c0100000000000000000000000000000000000000000000000000000000900463ffffffff1680625785dc1461009d57806321fd3a4a1461015457806354efb56b146101fe57806383dfc83c1461028257806397aba7f914610340578063a7bb5803146103f7578063e125a72e14610498578063ec565cb91461052a578063f1c0b9161461059c575b600080fd5b3480156100a957600080fd5b50610112600480360381019080803590602001908201803590602001908080601f016020809104026020016040519081016040528093929190818152602001838380828437820191505050505050919291929080356000191690602001909291905050506105fe565b604051808273ffffffffffffffffffffffffffffffffffffffff1673ffffffffffffffffffffffffffffffffffffffff16815260200191505060405180910390f35b34801561016057600080fd5b506101d160048036038101908080359060200190929190803515159060200190929190803590602001908201803590602001908080601f016020809104026020016040519081016040528093929190818152602001838380828437820191505050505050919291929050505061069f565b60405180836000191660001916815260200182600019166000191681526020019250505060405180910390f35b34801561020a57600080fd5b5061025560048036038101908080359060200190929190803515159060200190929190803573ffffffffffffffffffffffffffffffffffffffff16906020019092919050505061084c565b60405180836000191660001916815260200182600019166000191681526020019250505060405180910390f35b34801561028e57600080fd5b50610313600480360381019080803573ffffffffffffffffffffffffffffffffffffffff16906020019092919080359060200190929190803590602001908201803590602001908080601f01602080910402602001604051908101604052809392919081815260200183838082843782019150505050505091929192905050506109d5565b60405180836000191660001916815260200182600019166000191681526020019250505060405180910390f35b34801561034c57600080fd5b506103b56004803603810190808035600019169060200190929190803590602001908201803590602001908080601f0160208091040260200160405190810160405280939291908181526020018383808284378201915050505050509192919290505050610bac565b604051808273ffffffffffffffffffffffffffffffffffffffff1673ffffffffffffffffffffffffffffffffffffffff16815260200191505060405180910390f35b34801561040357600080fd5b5061045e600480360381019080803590602001908201803590602001908080601f0160208091040260200160405190810160405280939291908181526020018383808284378201915050505050509192919290505050610c4d565b604051808460ff1660ff16815260200183600019166000191681526020018260001916600019168152602001935050505060405180910390f35b3480156104a457600080fd5b5061050d6004803603810190808035600019169060200190929190803590602001908201803590602001908080601f0160208091040260200160405190810160405280939291908181526020018383808284378201915050505050509192919290505050610cf3565b604051808381526020018281526020019250505060405180910390f35b34801561053657600080fd5b5061056f600480360381019080803590602001909291908035151590602001909291908035600019169060200190929190505050610d0b565b60405180836000191660001916815260200182600019166000191681526020019250505060405180910390f35b3480156105a857600080fd5b506105d16004803603810190808035906020019092919080359060200190929190505050610e2e565b60405180836000191660001916815260200182600019166000191681526020019250505060405180910390f35b60008060008061060d86610c4d565b925092509250600185848484604051600081526020016040526040518085600019166000191681526020018460ff1660ff1681526020018360001916600019168152602001826000191660001916815260200194505050505060206040516020810390808403906000865af115801561068a573d6000803e3d6000fd5b50505060206040510351935050505092915050565b6000808484846040518084815260200183151515157f010000000000000000000000000000000000000000000000000000000000000002815260010182805190602001908083835b60208310151561070c57805182526020820191506020810190506020830392506106e7565b6001836020036101000a038019825116818451168082178552505050505050905001935050505060405180910390208585856040516020018084815260200183151515157f010000000000000000000000000000000000000000000000000000000000000002815260010182805190602001908083835b6020831015156107a85780518252602082019150602081019050602083039250610783565b6001836020036101000a03801982511681845116808217855250505050505090500193505050506040516020818303038152906040526040518082805190602001908083835b60208310151561081357805182526020820191506020810190506020830392506107ee565b6001836020036101000a038019825116818451168082178552505050505050905001915050604051809103902091509150935093915050565b6000808484846040518084815260200183151515157f01000000000000000000000000000000000000000000000000000000000000000281526001018273ffffffffffffffffffffffffffffffffffffffff1673ffffffffffffffffffffffffffffffffffffffff166c01000000000000000000000000028152601401935050505060405180910390208585856040516020018084815260200183151515157f01000000000000000000000000000000000000000000000000000000000000000281526001018273ffffffffffffffffffffffffffffffffffffffff1673ffffffffffffffffffffffffffffffffffffffff166c0100000000000000000000000002815260140193505050506040516020818303038152906040526040518082805190602001908083835b60208310151561099c5780518252602082019150602081019050602083039250610977565b6001836020036101000a038019825116818451168082178552505050505050905001915050604051809103902091509150935093915050565b600080848484604051808473ffffffffffffffffffffffffffffffffffffffff1673ffffffffffffffffffffffffffffffffffffffff166c0100000000000000000000000002815260140183815260200182805190602001908083835b602083101515610a575780518252602082019150602081019050602083039250610a32565b6001836020036101000a03801982511681845116808217855250505050505090500193505050506040518091039020858585604051602001808473ffffffffffffffffffffffffffffffffffffffff1673ffffffffffffffffffffffffffffffffffffffff166c0100000000000000000000000002815260140183815260200182805190602001908083835b602083101515610b085780518252602082019150602081019050602083039250610ae3565b6001836020036101000a03801982511681845116808217855250505050505090500193505050506040516020818303038152906040526040518082805190602001908083835b602083101515610b735780518252602082019150602081019050602083039250610b4e565b6001836020036101000a038019825116818451168082178552505050505050905001915050604051809103902091509150935093915050565b600080600080610bbb85610c4d565b925092509250600186848484604051600081526020016040526040518085600019166000191681526020018460ff1660ff1681526020018360001916600019168152602001826000191660001916815260200194505050505060206040516020810390808403906000865af1158015610c38573d6000803e3d6000fd5b50505060206040510351935050505092915050565b600080600060418451141515610ccb576040517f08c379a00000000000000000000000000000000000000000000000000000000081526004018080602001828103825260158152602001807f7369672e6c656e677468206973206e6f742036352e000000000000000000000081525060200191505060405180910390fd5b6020840151915060408401519050606084015160001a92508282829250925092509193909250565b600080602083518160ff169150915091509250929050565b6000808484846040518084815260200183151515157f01000000000000000000000000000000000000000000000000000000000000000281526001018260001916600019168152602001935050505060405180910390208585856040516020018084815260200183151515157f0100000000000000000000000000000000000000000000000000000000000000028152600101826000191660001916815260200193505050506040516020818303038152906040526040518082805190602001908083835b602083101515610df55780518252602082019150602081019050602083039250610dd0565b6001836020036101000a038019825116818451168082178552505050505050905001915050604051809103902091509150935093915050565b60008033848430604051808573ffffffffffffffffffffffffffffffffffffffff1673ffffffffffffffffffffffffffffffffffffffff166c010000000000000000000000000281526014018481526020018381526020018273ffffffffffffffffffffffffffffffffffffffff1673ffffffffffffffffffffffffffffffffffffffff166c01000000000000000000000000028152601401945050505050604051809103902033858530604051602001808573ffffffffffffffffffffffffffffffffffffffff1673ffffffffffffffffffffffffffffffffffffffff166c010000000000000000000000000281526014018481526020018381526020018273ffffffffffffffffffffffffffffffffffffffff1673ffffffffffffffffffffffffffffffffffffffff166c010000000000000000000000000281526014019450505050506040516020818303038152906040526040518082805190602001908083835b602083101515610fb85780518252602082019150602081019050602083039250610f93565b6001836020036101000a03801982511681845116808217855250505050505090500191505060405180910390209150915092509290505600a165627a7a723058209dca76e3c26a92740a79a7dced912735be5746fb13a76da45ff119ddebf1f3950029",
  "source": "pragma solidity >=0.4.22 <0.6.0;\r\n\r\ncontract EncodeTester {\r\n    // 用于表明 keccak256(a, b, c) 和 keccak256(abi.encodePacked(a, b, c)) 生成的结果是一致的\r\n    // 但是后一种方法抽象性更好\r\n    // abi.encodePacked Is it necessary, https://ethereum.stackexchange.com/questions/53220/abi-encodepacked-is-it-necessary\r\n    function encodePackedTest(address a, uint b, string c) public pure returns(bytes32, bytes32){\r\n        return (keccak256(a, b, c), keccak256(abi.encodePacked(a, b, c)));\r\n    }\r\n\r\n    function encodePackedTest2(uint value, bool fake, string secret) public pure returns(bytes32, bytes32){\r\n        return (keccak256(value, fake, secret), keccak256(abi.encodePacked(value, fake, secret)));\r\n    }\r\n\r\n    function encodePackedTest3(uint value, bool fake, bytes32 secret) public pure returns(bytes32, bytes32){\r\n        return (keccak256(value, fake, secret), keccak256(abi.encodePacked(value, fake, secret)));\r\n    }\r\n\r\n    function encodePackedTest4(uint value, bool fake, address secret) public pure returns(bytes32, bytes32){\r\n        return (keccak256(value, fake, secret), keccak256(abi.encodePacked(value, fake, secret)));\r\n    }\r\n\r\n    function encodePackedTest5(uint256 amount, uint256 nonce) public view returns(bytes32, bytes32) {\r\n        return (keccak256(msg.sender, amount, nonce, this), keccak256(abi.encodePacked(msg.sender, amount, nonce, this)));\r\n    }\r\n\r\n    /// signature methods.\r\n    function splitSignature(bytes memory sig)\r\n        public\r\n        pure\r\n        returns (uint8 v, bytes32 r, bytes32 s)\r\n    {\r\n        require(sig.length == 65, \"sig.length is not 65.\");\r\n\r\n        assembly {\r\n            // first 32 bytes, after the length prefix.\r\n            r := mload(add(sig, 32))\r\n            // second 32 bytes.\r\n            s := mload(add(sig, 64))\r\n            // final byte (first byte of the next 32 bytes).\r\n            v := byte(0, mload(add(sig, 96)))\r\n        }\r\n\r\n        return (v, r, s);\r\n    }\r\n\r\n    function lengthSignature(bytes32 message, bytes memory sig)\r\n        public\r\n        pure\r\n        returns (uint256, uint256)\r\n    {\r\n        return (message.length, sig.length);\r\n    }\r\n\r\n    function recoverSigner(bytes32 message, bytes memory sig)\r\n        public\r\n        pure\r\n        returns (address)\r\n    {\r\n        (uint8 v, bytes32 r, bytes32 s) = splitSignature(sig);\r\n\r\n        return ecrecover(message, v, r, s);\r\n    }\r\n\r\n    function recoverSigner2(bytes memory sig, bytes32 message)\r\n        public\r\n        pure\r\n        returns (address)\r\n    {\r\n        (uint8 v, bytes32 r, bytes32 s) = splitSignature(sig);\r\n\r\n        return ecrecover(message, v, r, s);\r\n    }\r\n\r\n}\r\n",
  "sourcePath": "D:\\working\\bitbucket\\zblockchain\\ethereumcodes\\windows\\truffle\\examples\\EncodTester\\contracts\\EncodeTester.sol",
  "compiler": {
    "name": "solc",
    "version": "0.4.24+commit.e67f0147.Emscripten.clang"
  },
  "schemaVersion": "2.0.1",
  "updatedAt": "2018-12-04T01:31:14.859Z"
}