{
  "contractName": "BlindAuction",
  "abi": [
    {
      "constant": true,
      "inputs": [
        {
          "name": "",
          "type": "address"
        },
        {
          "name": "",
          "type": "uint256"
        }
      ],
      "name": "bids",
      "outputs": [
        {
          "name": "blindedBid",
          "type": "bytes32"
        },
        {
          "name": "deposit",
          "type": "uint256"
        }
      ],
      "payable": false,
      "stateMutability": "view",
      "type": "function"
    },
    {
      "constant": true,
      "inputs": [],
      "name": "ended",
      "outputs": [
        {
          "name": "",
          "type": "bool"
        }
      ],
      "payable": false,
      "stateMutability": "view",
      "type": "function"
    },
    {
      "constant": true,
      "inputs": [],
      "name": "beneficiary",
      "outputs": [
        {
          "name": "",
          "type": "address"
        }
      ],
      "payable": false,
      "stateMutability": "view",
      "type": "function"
    },
    {
      "constant": true,
      "inputs": [],
      "name": "biddingEnd",
      "outputs": [
        {
          "name": "",
          "type": "uint256"
        }
      ],
      "payable": false,
      "stateMutability": "view",
      "type": "function"
    },
    {
      "constant": true,
      "inputs": [],
      "name": "highestBidder",
      "outputs": [
        {
          "name": "",
          "type": "address"
        }
      ],
      "payable": false,
      "stateMutability": "view",
      "type": "function"
    },
    {
      "constant": true,
      "inputs": [],
      "name": "revealEnd",
      "outputs": [
        {
          "name": "",
          "type": "uint256"
        }
      ],
      "payable": false,
      "stateMutability": "view",
      "type": "function"
    },
    {
      "constant": true,
      "inputs": [],
      "name": "highestBid",
      "outputs": [
        {
          "name": "",
          "type": "uint256"
        }
      ],
      "payable": false,
      "stateMutability": "view",
      "type": "function"
    },
    {
      "inputs": [
        {
          "name": "_biddingTime",
          "type": "uint256"
        },
        {
          "name": "_revealTime",
          "type": "uint256"
        },
        {
          "name": "_beneficiary",
          "type": "address"
        }
      ],
      "payable": false,
      "stateMutability": "nonpayable",
      "type": "constructor"
    },
    {
      "anonymous": false,
      "inputs": [
        {
          "indexed": false,
          "name": "winner",
          "type": "address"
        },
        {
          "indexed": false,
          "name": "highestBid",
          "type": "uint256"
        }
      ],
      "name": "AuctionEnded",
      "type": "event"
    },
    {
      "constant": false,
      "inputs": [
        {
          "name": "_blindedBid",
          "type": "bytes32"
        }
      ],
      "name": "bid",
      "outputs": [],
      "payable": true,
      "stateMutability": "payable",
      "type": "function"
    },
    {
      "constant": false,
      "inputs": [
        {
          "name": "_values",
          "type": "uint256[]"
        },
        {
          "name": "_fake",
          "type": "bool[]"
        },
        {
          "name": "_secret",
          "type": "bytes32[]"
        }
      ],
      "name": "reveal",
      "outputs": [],
      "payable": false,
      "stateMutability": "nonpayable",
      "type": "function"
    },
    {
      "constant": false,
      "inputs": [],
      "name": "withdraw",
      "outputs": [],
      "payable": false,
      "stateMutability": "nonpayable",
      "type": "function"
    },
    {
      "constant": false,
      "inputs": [],
      "name": "auctionEnd",
      "outputs": [],
      "payable": false,
      "stateMutability": "nonpayable",
      "type": "function"
    }
  ],
  "bytecode": "0x608060405234801561001057600080fd5b50604051606080610e4b833981018060405281019080805190602001909291908051906020019092919080519060200190929190505050806000806101000a81548173ffffffffffffffffffffffffffffffffffffffff021916908373ffffffffffffffffffffffffffffffffffffffff1602179055508242016001819055508160015401600281905550505050610d9e806100ad6000396000f3006080604052600436106100af576000357c0100000000000000000000000000000000000000000000000000000000900463ffffffff16806301495c1c146100b457806312fa6feb146101245780632a24f46c1461015357806338af3eed1461016a5780633ccfd60b146101c1578063423b217f146101d8578063900f080a1461020357806391f90157146102ef578063957bb1e014610346578063a6e664771461036a578063d57bde7914610395575b600080fd5b3480156100c057600080fd5b506100ff600480360381019080803573ffffffffffffffffffffffffffffffffffffffff169060200190929190803590602001909291905050506103c0565b6040518083600019166000191681526020018281526020019250505060405180910390f35b34801561013057600080fd5b50610139610400565b604051808215151515815260200191505060405180910390f35b34801561015f57600080fd5b50610168610413565b005b34801561017657600080fd5b5061017f6105c0565b604051808273ffffffffffffffffffffffffffffffffffffffff1673ffffffffffffffffffffffffffffffffffffffff16815260200191505060405180910390f35b3480156101cd57600080fd5b506101d66105e5565b005b3480156101e457600080fd5b506101ed6106c2565b6040518082815260200191505060405180910390f35b34801561020f57600080fd5b506102ed6004803603810190808035906020019082018035906020019080806020026020016040519081016040528093929190818152602001838360200280828437820191505050505050919291929080359060200190820180359060200190808060200260200160405190810160405280939291908181526020018383602002808284378201915050505050509192919290803590602001908201803590602001908080602002602001604051908101604052809392919081815260200183836020028082843782019150505050505091929192905050506106c8565b005b3480156102fb57600080fd5b50610304610aef565b604051808273ffffffffffffffffffffffffffffffffffffffff1673ffffffffffffffffffffffffffffffffffffffff16815260200191505060405180910390f35b6103686004803603810190808035600019169060200190929190505050610b15565b005b34801561037657600080fd5b5061037f610c33565b6040518082815260200191505060405180910390f35b3480156103a157600080fd5b506103aa610c39565b6040518082815260200191505060405180910390f35b6004602052816000526040600020818154811015156103db57fe5b9060005260206000209060020201600091509150508060000154908060010154905082565b600360009054906101000a900460ff1681565b600254804211151561048d576040517f08c379a00000000000000000000000000000000000000000000000000000000081526004018080602001828103825260128152602001807f6f6e6c79206166746572206661696c65642e000000000000000000000000000081525060200191505060405180910390fd5b600360009054906101000a900460ff161515156104a957600080fd5b7fdaec4582d5d9595688c8c98545fdd1c696d41c6aeaeb636737e84ed2f5c00eda600560009054906101000a900473ffffffffffffffffffffffffffffffffffffffff16600654604051808373ffffffffffffffffffffffffffffffffffffffff1673ffffffffffffffffffffffffffffffffffffffff1681526020018281526020019250505060405180910390a16001600360006101000a81548160ff0219169083151502179055506000809054906101000a900473ffffffffffffffffffffffffffffffffffffffff1673ffffffffffffffffffffffffffffffffffffffff166108fc6006549081150290604051600060405180830381858888f193505050501580156105bc573d6000803e3d6000fd5b5050565b6000809054906101000a900473ffffffffffffffffffffffffffffffffffffffff1681565b6000600760003373ffffffffffffffffffffffffffffffffffffffff1673ffffffffffffffffffffffffffffffffffffffff16815260200190815260200160002054905060008111156106bf576000600760003373ffffffffffffffffffffffffffffffffffffffff1673ffffffffffffffffffffffffffffffffffffffff168152602001908152602001600020819055503373ffffffffffffffffffffffffffffffffffffffff166108fc829081150290604051600060405180830381858888f193505050501580156106bd573d6000803e3d6000fd5b505b50565b60015481565b6000806000806000806000600154804211151561074d576040517f08c379a00000000000000000000000000000000000000000000000000000000081526004018080602001828103825260128152602001807f6f6e6c79206166746572206661696c65642e000000000000000000000000000081525060200191505060405180910390fd5b60025480421015156107c7576040517f08c379a00000000000000000000000000000000000000000000000000000000081526004018080602001828103825260138152602001807f6f6e6c79206265666f7265206661696c65642e0000000000000000000000000081525060200191505060405180910390fd5b600460003373ffffffffffffffffffffffffffffffffffffffff1673ffffffffffffffffffffffffffffffffffffffff168152602001908152602001600020805490509850888c51141515610884576040517f08c379a00000000000000000000000000000000000000000000000000000000081526004018080602001828103825260158152602001807f76616c756573206c656e677468206661696c65642e000000000000000000000081525060200191505060405180910390fd5b888b511415156108fc576040517f08c379a00000000000000000000000000000000000000000000000000000000081526004018080602001828103825260148152602001807f66616b6573206c656e677468206661696c65642e00000000000000000000000081525060200191505060405180910390fd5b888a51141515610974576040517f08c379a00000000000000000000000000000000000000000000000000000000081526004018080602001828103825260158152602001807f736563726574206c656e677468206661696c65642e000000000000000000000081525060200191505060405180910390fd5b600096505b88871015610a9a57600460003373ffffffffffffffffffffffffffffffffffffffff1673ffffffffffffffffffffffffffffffffffffffff168152602001908152602001600020878154811015156109cd57fe5b906000526020600020906002020195508b878151811015156109eb57fe5b906020019060200201518b88815181101515610a0357fe5b906020019060200201518b89815181101515610a1b57fe5b906020019060200201519450945094508260001916866000015460001916141515610a4557610a8d565b85600101548801975083158015610a60575084866001015410155b15610a7b57610a6f3386610c3f565b15610a7a5784880397505b5b60006001028660000181600019169055505b8680600101975050610979565b3373ffffffffffffffffffffffffffffffffffffffff166108fc899081150290604051600060405180830381858888f19350505050158015610ae0573d6000803e3d6000fd5b50505050505050505050505050565b600560009054906101000a900473ffffffffffffffffffffffffffffffffffffffff1681565b6001548042101515610b8f576040517f08c379a00000000000000000000000000000000000000000000000000000000081526004018080602001828103825260138152602001807f6f6e6c79206265666f7265206661696c65642e0000000000000000000000000081525060200191505060405180910390fd5b600460003373ffffffffffffffffffffffffffffffffffffffff1673ffffffffffffffffffffffffffffffffffffffff168152602001908152602001600020604080519081016040528084600019168152602001348152509080600181540180825580915050906001820390600052602060002090600202016000909192909190915060008201518160000190600019169055602082015181600101555050505050565b60025481565b60065481565b600060065482111515610c555760009050610d6c565b600073ffffffffffffffffffffffffffffffffffffffff16600560009054906101000a900473ffffffffffffffffffffffffffffffffffffffff1673ffffffffffffffffffffffffffffffffffffffff16141515610d1f5760065460076000600560009054906101000a900473ffffffffffffffffffffffffffffffffffffffff1673ffffffffffffffffffffffffffffffffffffffff1673ffffffffffffffffffffffffffffffffffffffff168152602001908152602001600020600082825401925050819055505b8160068190555082600560006101000a81548173ffffffffffffffffffffffffffffffffffffffff021916908373ffffffffffffffffffffffffffffffffffffffff160217905550600190505b929150505600a165627a7a7230582087c1673696057fcddaf073826498fa559a2ad333b11ea2f6b6fa179f4bf7af0b0029",
  "source": "pragma solidity >0.4.23 <0.6.0;\r\n\r\ncontract BlindAuction {\r\n    struct Bid {\r\n        bytes32 blindedBid;\r\n        uint deposit;\r\n    }\r\n\r\n    // address payable public beneficiary;\r\n    address public beneficiary;\r\n    uint public biddingEnd;\r\n    uint public revealEnd;\r\n    bool public ended;\r\n\r\n    mapping(address => Bid[]) public bids;\r\n\r\n    address public highestBidder;\r\n    uint public highestBid;\r\n\r\n    // Allowed withdrawals of previous bids\r\n    mapping(address => uint) pendingReturns;\r\n\r\n    event AuctionEnded(address winner, uint highestBid);\r\n\r\n    /// Modifiers are a convenient way to validate inputs to\r\n    /// functions. `onlyBefore` is applied to `bid` below:\r\n    /// The new function body is the modifier's body where\r\n    /// `_` is replaced by the old function body.\r\n    modifier onlyBefore(uint _time) { require(now < _time, \"only before failed.\"); _; }\r\n    modifier onlyAfter(uint _time) { require(now > _time, \"only after failed.\"); _; }\r\n\r\n    constructor(\r\n        uint _biddingTime,\r\n        uint _revealTime,\r\n        // address payable _beneficiary\r\n        address _beneficiary\r\n    ) public {\r\n        beneficiary = _beneficiary;\r\n        biddingEnd = now + _biddingTime;\r\n        revealEnd = biddingEnd + _revealTime;\r\n    }\r\n\r\n    /// Place a blinded bid with `_blindedBid` =\r\n    /// keccak256(abi.encodePacked(value, fake, secret)).\r\n    /// The sent ether is only refunded if the bid is correctly\r\n    /// revealed in the revealing phase. The bid is valid if the\r\n    /// ether sent together with the bid is at least \"value\" and\r\n    /// \"fake\" is not true. Setting \"fake\" to true and sending\r\n    /// not the exact amount are ways to hide the real bid but\r\n    /// still make the required deposit. The same address can\r\n    /// place multiple bids.\r\n    function bid(bytes32 _blindedBid)\r\n        public\r\n        payable\r\n        onlyBefore(biddingEnd)\r\n    {\r\n        bids[msg.sender].push(Bid({\r\n            blindedBid: _blindedBid,\r\n            deposit: msg.value\r\n        }));\r\n    }\r\n\r\n    /// Reveal your blinded bids. You will get a refund for all\r\n    /// correctly blinded invalid bids and for all bids except for\r\n    /// the totally highest.\r\n    function reveal(\r\n        uint[] memory _values,\r\n        bool[] memory _fake,\r\n        bytes32[] memory _secret\r\n        // string[] _secret\r\n    )\r\n        public\r\n        onlyAfter(biddingEnd)\r\n        onlyBefore(revealEnd)\r\n    {\r\n        uint length = bids[msg.sender].length;\r\n        require(_values.length == length, \"values length failed.\");\r\n        require(_fake.length == length, \"fakes length failed.\");\r\n        require(_secret.length == length, \"secret length failed.\");\r\n\r\n        uint refund;\r\n        for (uint i = 0; i < length; i++) {\r\n            Bid storage bidToCheck = bids[msg.sender][i];\r\n            (uint value, bool fake, bytes32 secret) =\r\n            //(uint value, bool fake, string secret) =\r\n                    (_values[i], _fake[i], _secret[i]);\r\n            if (bidToCheck.blindedBid != secret) {\r\n            // if (bidToCheck.blindedBid != keccak256(abi.encodePacked(value, fake, secret))) {\r\n            // if (bidToCheck.blindedBid != keccak256(value, fake, secret)) {\r\n                // Bid was not actually revealed.\r\n                // Do not refund deposit.\r\n                continue;\r\n            }\r\n            refund += bidToCheck.deposit;\r\n            if (!fake && bidToCheck.deposit >= value) {\r\n                if (placeBid(msg.sender, value))\r\n                    refund -= value;\r\n            }\r\n            // Make it impossible for the sender to re-claim\r\n            // the same deposit.\r\n            bidToCheck.blindedBid = bytes32(0);\r\n            // bidToCheck.blindedBid = \"\";\r\n        }\r\n        msg.sender.transfer(refund);\r\n    }\r\n\r\n    // This is an \"internal\" function which means that it\r\n    // can only be called from the contract itself (or from\r\n    // derived contracts).\r\n    function placeBid(address bidder, uint value) internal\r\n            returns (bool success)\r\n    {\r\n        if (value <= highestBid) {\r\n            return false;\r\n        }\r\n        if (highestBidder != address(0)) {\r\n            // Refund the previously highest bidder.\r\n            pendingReturns[highestBidder] += highestBid;\r\n        }\r\n        highestBid = value;\r\n        highestBidder = bidder;\r\n        return true;\r\n    }\r\n\r\n    /// Withdraw a bid that was overbid.\r\n    function withdraw() public {\r\n        uint amount = pendingReturns[msg.sender];\r\n        if (amount > 0) {\r\n            // It is important to set this to zero because the recipient\r\n            // can call this function again as part of the receiving call\r\n            // before `transfer` returns (see the remark above about\r\n            // conditions -> effects -> interaction).\r\n            pendingReturns[msg.sender] = 0;\r\n\r\n            msg.sender.transfer(amount);\r\n        }\r\n    }\r\n\r\n    /// End the auction and send the highest bid\r\n    /// to the beneficiary.\r\n    function auctionEnd()\r\n        public\r\n        onlyAfter(revealEnd)\r\n    {\r\n        require(!ended);\r\n        emit AuctionEnded(highestBidder, highestBid);\r\n        ended = true;\r\n        beneficiary.transfer(highestBid);\r\n    }\r\n}\r\n",
  "sourcePath": "D:\\working\\bitbucket\\zblockchain\\ethereumcodes\\windows\\truffle\\examples\\BlindAuction\\contracts\\BlindAuction.sol",
  "compiler": {
    "name": "solc",
    "version": "0.4.24+commit.e67f0147.Emscripten.clang"
  },
  "schemaVersion": "2.0.1",
  "updatedAt": "2018-12-03T02:11:20.564Z"
}