{
  "contractName": "metaCoin",
  "abi": [
    {
      "inputs": [],
      "payable": false,
      "stateMutability": "nonpayable",
      "type": "constructor"
    },
    {
      "constant": false,
      "inputs": [
        {
          "name": "receiver",
          "type": "address"
        },
        {
          "name": "amount",
          "type": "uint256"
        }
      ],
      "name": "sendCoin",
      "outputs": [
        {
          "name": "sufficient",
          "type": "bool"
        }
      ],
      "payable": false,
      "stateMutability": "nonpayable",
      "type": "function"
    }
  ],
  "bytecode": "0x608060405234801561001057600080fd5b506127106000803373ffffffffffffffffffffffffffffffffffffffff1673ffffffffffffffffffffffffffffffffffffffff168152602001908152602001600020819055506101cb806100656000396000f300608060405260043610610041576000357c0100000000000000000000000000000000000000000000000000000000900463ffffffff16806390b98a1114610046575b600080fd5b34801561005257600080fd5b50610091600480360381019080803573ffffffffffffffffffffffffffffffffffffffff169060200190929190803590602001909291905050506100ab565b604051808215151515815260200191505060405180910390f35b6000816000803373ffffffffffffffffffffffffffffffffffffffff1673ffffffffffffffffffffffffffffffffffffffff1681526020019081526020016000205410156100fc5760009050610199565b816000803373ffffffffffffffffffffffffffffffffffffffff1673ffffffffffffffffffffffffffffffffffffffff16815260200190815260200160002060008282540392505081905550816000808573ffffffffffffffffffffffffffffffffffffffff1673ffffffffffffffffffffffffffffffffffffffff16815260200190815260200160002060008282540192505081905550600190505b929150505600a165627a7a723058202e2064ec28e1b3552146190ca4f4df64ce6a311f8d689fc854d1b45e02d6f5d60029",
  "source": "pragma solidity ^0.4.23;\r\n\r\ncontract metaCoin {\t\r\n\tmapping (address => uint) balances;\r\n\tfunction metaCoin() {\r\n\t\tbalances[msg.sender] = 10000;\r\n\t}\r\n\tfunction sendCoin(address receiver, uint amount) returns(bool sufficient) {\r\n\t\tif (balances[msg.sender] < amount) return false;\r\n\t\tbalances[msg.sender] -= amount;\r\n\t\tbalances[receiver] += amount;\r\n\t\treturn true;\r\n\t}\r\n}\r\n",
  "sourcePath": "D:\\working\\bitbucket\\zblockchain\\ethereumcodes\\windows\\truffle\\examples\\MetaCoin\\contracts\\MetaCoin.sol",
  "compiler": {
    "name": "solc",
    "version": "0.4.24+commit.e67f0147.Emscripten.clang"
  },
  "schemaVersion": "2.0.1",
  "updatedAt": "2018-10-30T01:20:20.887Z"
}