{
  "contractName": "MyContract",
  "abi": [
    {
      "constant": true,
      "inputs": [],
      "name": "value",
      "outputs": [
        {
          "name": "",
          "type": "int256"
        }
      ],
      "payable": false,
      "stateMutability": "view",
      "type": "function"
    },
    {
      "constant": true,
      "inputs": [],
      "name": "owner",
      "outputs": [
        {
          "name": "",
          "type": "address"
        }
      ],
      "payable": false,
      "stateMutability": "view",
      "type": "function"
    },
    {
      "inputs": [],
      "payable": false,
      "stateMutability": "nonpayable",
      "type": "constructor"
    },
    {
      "constant": false,
      "inputs": [
        {
          "name": "v",
          "type": "int256"
        }
      ],
      "name": "setValue",
      "outputs": [],
      "payable": false,
      "stateMutability": "nonpayable",
      "type": "function"
    },
    {
      "constant": true,
      "inputs": [],
      "name": "getValue",
      "outputs": [
        {
          "name": "",
          "type": "int256"
        }
      ],
      "payable": false,
      "stateMutability": "view",
      "type": "function"
    }
  ],
  "bytecode": "0x608060405234801561001057600080fd5b50336000806101000a81548173ffffffffffffffffffffffffffffffffffffffff021916908373ffffffffffffffffffffffffffffffffffffffff1602179055506101ac806100606000396000f300608060405260043610610062576000357c0100000000000000000000000000000000000000000000000000000000900463ffffffff16806320965255146100675780633fa4f245146100925780635093dc7d146100bd5780638da5cb5b146100ea575b600080fd5b34801561007357600080fd5b5061007c610141565b6040518082815260200191505060405180910390f35b34801561009e57600080fd5b506100a761014b565b6040518082815260200191505060405180910390f35b3480156100c957600080fd5b506100e860048036038101908080359060200190929190505050610151565b005b3480156100f657600080fd5b506100ff61015b565b604051808273ffffffffffffffffffffffffffffffffffffffff1673ffffffffffffffffffffffffffffffffffffffff16815260200191505060405180910390f35b6000600154905090565b60015481565b8060018190555050565b6000809054906101000a900473ffffffffffffffffffffffffffffffffffffffff16815600a165627a7a723058200bb0920ea286eb55170e153e86c62dc358f2f02c8f5deb6a5823c514273e96dc0029",
  "source": "pragma solidity ^0.4.23;\r\n\r\ncontract MyContract {\r\n    address public owner;\r\n    int public value;\r\n\r\n    constructor() public {\r\n        owner = msg.sender;\r\n    }\r\n\r\n    function setValue(int v) public {\r\n        value = v;\r\n    }\r\n\r\n    function getValue() public view returns(int) {\r\n        return value;\r\n    }\r\n}\r\n",
  "sourcePath": "C:\\working\\github\\windstamp\\dapp\\examples\\MyContract\\contracts\\MyContract.sol",
  "compiler": {
    "name": "solc",
    "version": "0.4.24+commit.e67f0147.Emscripten.clang"
  },
  "schemaVersion": "2.0.1",
  "updatedAt": "2018-10-28T14:34:01.825Z"
}