{
  "contractName": "SimplePaymentChannel",
  "abi": [
    {
      "constant": true,
      "inputs": [],
      "name": "expiration",
      "outputs": [
        {
          "name": "",
          "type": "uint256"
        }
      ],
      "payable": false,
      "stateMutability": "view",
      "type": "function"
    },
    {
      "constant": true,
      "inputs": [],
      "name": "recipient",
      "outputs": [
        {
          "name": "",
          "type": "address"
        }
      ],
      "payable": false,
      "stateMutability": "view",
      "type": "function"
    },
    {
      "constant": true,
      "inputs": [],
      "name": "sender",
      "outputs": [
        {
          "name": "",
          "type": "address"
        }
      ],
      "payable": false,
      "stateMutability": "view",
      "type": "function"
    },
    {
      "inputs": [
        {
          "name": "_recipient",
          "type": "address"
        },
        {
          "name": "duration",
          "type": "uint256"
        }
      ],
      "payable": true,
      "stateMutability": "payable",
      "type": "constructor"
    },
    {
      "constant": false,
      "inputs": [
        {
          "name": "amount",
          "type": "uint256"
        },
        {
          "name": "signature",
          "type": "bytes"
        }
      ],
      "name": "close",
      "outputs": [],
      "payable": false,
      "stateMutability": "nonpayable",
      "type": "function"
    },
    {
      "constant": false,
      "inputs": [
        {
          "name": "newExpiration",
          "type": "uint256"
        }
      ],
      "name": "extend",
      "outputs": [],
      "payable": false,
      "stateMutability": "nonpayable",
      "type": "function"
    },
    {
      "constant": false,
      "inputs": [],
      "name": "claimTimeout",
      "outputs": [],
      "payable": false,
      "stateMutability": "nonpayable",
      "type": "function"
    }
  ],
  "bytecode": "0x60806040526040516040806109318339810180604052810190808051906020019092919080519060200190929190505050336000806101000a81548173ffffffffffffffffffffffffffffffffffffffff021916908373ffffffffffffffffffffffffffffffffffffffff16021790555081600160006101000a81548173ffffffffffffffffffffffffffffffffffffffff021916908373ffffffffffffffffffffffffffffffffffffffff1602179055508042016002819055505050610866806100cb6000396000f300608060405260043610610078576000357c0100000000000000000000000000000000000000000000000000000000900463ffffffff1680630e1da6c31461007d578063415ffba7146100945780634665096d1461010757806366d003ac1461013257806367e404ce146101895780639714378c146101e0575b600080fd5b34801561008957600080fd5b5061009261020d565b005b3480156100a057600080fd5b5061010560048036038101908080359060200190929190803590602001908201803590602001908080601f0160208091040260200160405190810160405280939291908181526020018383808284378201915050505050509192919290505050610258565b005b34801561011357600080fd5b5061011c61043e565b6040518082815260200191505060405180910390f35b34801561013e57600080fd5b50610147610444565b604051808273ffffffffffffffffffffffffffffffffffffffff1673ffffffffffffffffffffffffffffffffffffffff16815260200191505060405180910390f35b34801561019557600080fd5b5061019e61046a565b604051808273ffffffffffffffffffffffffffffffffffffffff1673ffffffffffffffffffffffffffffffffffffffff16815260200191505060405180910390f35b3480156101ec57600080fd5b5061020b6004803603810190808035906020019092919050505061048f565b005b600254421015151561021e57600080fd5b6000809054906101000a900473ffffffffffffffffffffffffffffffffffffffff1673ffffffffffffffffffffffffffffffffffffffff16ff5b600160009054906101000a900473ffffffffffffffffffffffffffffffffffffffff1673ffffffffffffffffffffffffffffffffffffffff163373ffffffffffffffffffffffffffffffffffffffff1614151561031d576040517f08c379a000000000000000000000000000000000000000000000000000000000815260040180806020018281038252601b8152602001807f6d73672e73656e646572206973206e6f7420726563697069656e74000000000081525060200191505060405180910390fd5b610327828261056d565b151561039b576040517f08c379a00000000000000000000000000000000000000000000000000000000081526004018080602001828103825260188152602001807f697356616c69645369676e6174757265206661696c65642e000000000000000081525060200191505060405180910390fd5b600160009054906101000a900473ffffffffffffffffffffffffffffffffffffffff1673ffffffffffffffffffffffffffffffffffffffff166108fc839081150290604051600060405180830381858888f19350505050158015610403573d6000803e3d6000fd5b506000809054906101000a900473ffffffffffffffffffffffffffffffffffffffff1673ffffffffffffffffffffffffffffffffffffffff16ff5b60025481565b600160009054906101000a900473ffffffffffffffffffffffffffffffffffffffff1681565b6000809054906101000a900473ffffffffffffffffffffffffffffffffffffffff1681565b6000809054906101000a900473ffffffffffffffffffffffffffffffffffffffff1673ffffffffffffffffffffffffffffffffffffffff163373ffffffffffffffffffffffffffffffffffffffff16141515610553576040517f08c379a00000000000000000000000000000000000000000000000000000000081526004018080602001828103825260188152602001807f6d73672e73656e646572206973206e6f742073656e646572000000000000000081525060200191505060405180910390fd5b6002548111151561056357600080fd5b8060028190555050565b60008061063d3085604051602001808373ffffffffffffffffffffffffffffffffffffffff1673ffffffffffffffffffffffffffffffffffffffff166c01000000000000000000000000028152601401828152602001925050506040516020818303038152906040526040518082805190602001908083835b60208310151561060b57805182526020820191506020810190506020830392506105e6565b6001836020036101000a03801982511681845116808217855250505050505090500191505060405180910390206106a1565b90506000809054906101000a900473ffffffffffffffffffffffffffffffffffffffff1673ffffffffffffffffffffffffffffffffffffffff16610681828561075c565b73ffffffffffffffffffffffffffffffffffffffff161491505092915050565b60008160405160200180807f19457468657265756d205369676e6564204d6573736167653a0a333200000000815250601c0182600019166000191681526020019150506040516020818303038152906040526040518082805190602001908083835b6020831015156107285780518252602082019150602081019050602083039250610703565b6001836020036101000a03801982511681845116808217855250505050505090500191505060405180910390209050919050565b60008060008061076b856107fd565b925092509250600186848484604051600081526020016040526040518085600019166000191681526020018460ff1660ff1681526020018360001916600019168152602001826000191660001916815260200194505050505060206040516020810390808403906000865af11580156107e8573d6000803e3d6000fd5b50505060206040510351935050505092915050565b60008060006041845114151561081257600080fd5b6020840151915060408401519050606084015160001a925082828292509250925091939092505600a165627a7a723058208d6aeafd27c5c2a08bedf7a66b8403a9544f8102ad8e633b682a37f4a88ca9370029",
  "source": "pragma solidity >=0.4.24 <0.6.0;\r\n\r\n// Alice 部署智能合约 ReceiverPays\r\n// 并对所支付的数据amount生成签名signature\r\n// Bob调用方法ReceiverPays.claimPayment() 获取Alice发送给Bob的amount个以太币（单位：Wei）\r\n\r\ncontract SimplePaymentChannel {\r\n    // address payable public sender;      // The account sending payments.\r\n    address public sender;      // The account sending payments.\r\n    // address payable public recipient;   // The account receiving the payments.\r\n    address public recipient;   // The account receiving the payments.\r\n    uint256 public expiration;  // Timeout in case the recipient never closes.\r\n\r\n    // constructor (address payable _recipient, uint256 duration)\r\n    constructor (address _recipient, uint256 duration)\r\n        public\r\n        payable\r\n    {\r\n        sender = msg.sender;\r\n        recipient = _recipient;\r\n        expiration = now + duration;\r\n    }\r\n\r\n    function isValidSignature(uint256 amount, bytes memory signature)\r\n        internal\r\n        view\r\n        returns (bool)\r\n    {\r\n        bytes32 message = prefixed(keccak256(abi.encodePacked(this, amount)));\r\n\r\n        // check that the signature is from the payment sender\r\n        return recoverSigner(message, signature) == sender;\r\n    }\r\n\r\n    /// the recipient can close the channel at any time by presenting a\r\n    /// signed amount from the sender. the recipient will be sent that amount,\r\n    /// and the remainder will go back to the sender\r\n    function close(uint256 amount, bytes memory signature) public {\r\n        require(msg.sender == recipient, \"msg.sender is not recipient\");\r\n        require(isValidSignature(amount, signature), \"isValidSignature failed.\");\r\n\r\n        recipient.transfer(amount);\r\n        selfdestruct(sender);\r\n    }\r\n\r\n    /// the sender can extend the expiration at any time\r\n    function extend(uint256 newExpiration) public {\r\n        require(msg.sender == sender, \"msg.sender is not sender\");\r\n        require(newExpiration > expiration);\r\n\r\n        expiration = newExpiration;\r\n    }\r\n\r\n    /// if the timeout is reached without the recipient closing the channel,\r\n    /// then the Ether is released back to the sender.\r\n    function claimTimeout() public {\r\n        require(now >= expiration);\r\n        selfdestruct(sender);\r\n    }\r\n\r\n    /// All functions below this are just taken from the chapter\r\n    /// 'creating and verifying signatures' chapter.\r\n\r\n    function splitSignature(bytes memory sig)\r\n        internal\r\n        pure\r\n        returns (uint8 v, bytes32 r, bytes32 s)\r\n    {\r\n        require(sig.length == 65);\r\n\r\n        assembly {\r\n            // first 32 bytes, after the length prefix\r\n            r := mload(add(sig, 32))\r\n            // second 32 bytes\r\n            s := mload(add(sig, 64))\r\n            // final byte (first byte of the next 32 bytes)\r\n            v := byte(0, mload(add(sig, 96)))\r\n        }\r\n\r\n        return (v, r, s);\r\n    }\r\n\r\n    function recoverSigner(bytes32 message, bytes memory sig)\r\n        internal\r\n        pure\r\n        returns (address)\r\n    {\r\n        (uint8 v, bytes32 r, bytes32 s) = splitSignature(sig);\r\n\r\n        return ecrecover(message, v, r, s);\r\n    }\r\n\r\n    /// builds a prefixed hash to mimic the behavior of eth_sign.\r\n    function prefixed(bytes32 hash) internal pure returns (bytes32) {\r\n        return keccak256(abi.encodePacked(\"\\x19Ethereum Signed Message:\\n32\", hash));\r\n    }\r\n}\r\n",
  "sourcePath": "D:\\working\\bitbucket\\zblockchain\\ethereumcodes\\windows\\truffle\\examples\\SimplePaymentChannel\\contracts\\SimplePaymentChannel.sol",
  "compiler": {
    "name": "solc",
    "version": "0.4.24+commit.e67f0147.Emscripten.clang"
  },
  "schemaVersion": "2.0.1",
  "updatedAt": "2018-12-04T03:29:32.759Z"
}