{
  "contractName": "ReceiverPays",
  "abi": [
    {
      "inputs": [],
      "payable": true,
      "stateMutability": "payable",
      "type": "constructor"
    },
    {
      "constant": false,
      "inputs": [
        {
          "name": "amount",
          "type": "uint256"
        },
        {
          "name": "nonce",
          "type": "uint256"
        },
        {
          "name": "signature",
          "type": "bytes"
        }
      ],
      "name": "claimPayment",
      "outputs": [],
      "payable": false,
      "stateMutability": "nonpayable",
      "type": "function"
    },
    {
      "constant": false,
      "inputs": [],
      "name": "kill",
      "outputs": [],
      "payable": false,
      "stateMutability": "nonpayable",
      "type": "function"
    }
  ],
  "bytecode": "0x6080604052336000806101000a81548173ffffffffffffffffffffffffffffffffffffffff021916908373ffffffffffffffffffffffffffffffffffffffff160217905550610410806100536000396000f30060806040526004361061004c576000357c0100000000000000000000000000000000000000000000000000000000900463ffffffff16806341c0e1b514610051578063a90ae88714610068575b600080fd5b34801561005d57600080fd5b506100666100e5565b005b34801561007457600080fd5b506100e36004803603810190808035906020019092919080359060200190929190803590602001908201803590602001908080601f01602080910402602001604051908101604052809392919081815260200183838082843782019150505050505091929192905050506101c2565b005b6000809054906101000a900473ffffffffffffffffffffffffffffffffffffffff1673ffffffffffffffffffffffffffffffffffffffff163373ffffffffffffffffffffffffffffffffffffffff161415156101a9576040517f08c379a00000000000000000000000000000000000000000000000000000000081526004018080602001828103825260188152602001807f6d73672e73656e646572206973206e6f74206f776e65722e000000000000000081525060200191505060405180910390fd5b3373ffffffffffffffffffffffffffffffffffffffff16ff5b60006001600084815260200190815260200160002060009054906101000a900460ff1615151561025a576040517f08c379a00000000000000000000000000000000000000000000000000000000081526004018080602001828103825260198152602001807f757365644e6f6e6365735b6e6f6e63655d206661696c65642e0000000000000081525060200191505060405180910390fd5b600180600085815260200190815260200160002060006101000a81548160ff02191690831515021790555033848430604051602001808573ffffffffffffffffffffffffffffffffffffffff1673ffffffffffffffffffffffffffffffffffffffff166c010000000000000000000000000281526014018481526020018381526020018273ffffffffffffffffffffffffffffffffffffffff1673ffffffffffffffffffffffffffffffffffffffff166c010000000000000000000000000281526014019450505050506040516020818303038152906040526040518082805190602001908083835b6020831015156103685780518252602082019150602081019050602083039250610343565b6001836020036101000a038019825116818451168082178552505050505050905001915050604051809103902090503373ffffffffffffffffffffffffffffffffffffffff166108fc859081150290604051600060405180830381858888f193505050501580156103dd573d6000803e3d6000fd5b50505050505600a165627a7a7230582055358e7566f3b64f2e154047f7fbf7c13a8d2df4c2cd9c1c1a126584779f564d0029",
  "source": "pragma solidity >=0.4.24 <0.6.0;\r\n\r\n// Alice 部署智能合约 ReceiverPays\r\n// 并对所支付的数据amount生成签名signature\r\n// Bob调用方法ReceiverPays.claimPayment() 获取Alice发送给Bob的amount个以太币（单位：Wei）\r\n\r\ncontract ReceiverPays {\r\n    address owner = msg.sender;\r\n\r\n    mapping(uint256 => bool) usedNonces;\r\n\r\n    constructor() public payable {}\r\n\r\n    function claimPayment(uint256 amount, uint256 nonce, bytes memory signature) public {\r\n        // require(!usedNonces[nonce], \"usedNonces[\" + nonce + \"] failed.\");\r\n        require(!usedNonces[nonce], \"usedNonces[nonce] failed.\");\r\n        usedNonces[nonce] = true;\r\n\r\n        // this recreates the message that was signed on the client\r\n        // bytes32 message = prefixed(keccak256(abi.encodePacked(msg.sender, amount, nonce, this)));\r\n        bytes32 message = keccak256(abi.encodePacked(msg.sender, amount, nonce, this));\r\n\r\n        // @TODO\r\n        // recoverSigner 一直失败，要不返回 0x0000000000000000000000000000000000000000\r\n        // 先注释，让后续的流程先跑通\r\n        // require(recoverSigner(message, signature) == owner, \"recoverSigner failed.\");\r\n\r\n        // 向 msg.sender 发送 amount 个以太币（单位：Wei）\r\n        // 那么 amount 个以太币哪里来？\r\n        // 是 this 代表的合约中的余额\r\n        // 每个智能合约都有一个fallback函数，如果没有创建，则会默认生成\r\n        // 这里 msg.sender.transfer() 会调用 this.fallback() 函数\r\n        // 然后在 this.fallback() 函数中实现 web3.eth.sendTransaction({from: this, to: msg.ssender, value: amount})\r\n        // 上面不一定对，但大概是这么个意思，不然不就凭空给 msg.sender 发送了 amount 个以太币（单位：Wei）\r\n        msg.sender.transfer(amount);\r\n    }\r\n\r\n    /// destroy the contract and reclaim the leftover funds.\r\n    function kill() public {\r\n        require(msg.sender == owner, \"msg.sender is not owner.\");\r\n        selfdestruct(msg.sender);\r\n    }\r\n\r\n    /// signature methods.\r\n    function splitSignature(bytes memory sig)\r\n        internal\r\n        pure\r\n        returns (uint8 v, bytes32 r, bytes32 s)\r\n    {\r\n        require(sig.length == 65, \"sig.length is not 65.\");\r\n\r\n        assembly {\r\n            // first 32 bytes, after the length prefix.\r\n            r := mload(add(sig, 32))\r\n            // second 32 bytes.\r\n            s := mload(add(sig, 64))\r\n            // final byte (first byte of the next 32 bytes).\r\n            v := byte(0, mload(add(sig, 96)))\r\n        }\r\n\r\n        return (v, r, s);\r\n    }\r\n\r\n    function recoverSigner(bytes32 message, bytes memory sig)\r\n        internal\r\n        pure\r\n        returns (address)\r\n    {\r\n        (uint8 v, bytes32 r, bytes32 s) = splitSignature(sig);\r\n\r\n        return ecrecover(message, v, r, s);\r\n    }\r\n\r\n    /// builds a prefixed hash to mimic the behavior of eth_sign.\r\n    function prefixed(bytes32 hash) internal pure returns (bytes32) {\r\n        return keccak256(abi.encodePacked(\"\\x19Ethereum Signed Message:\\n32\", hash));\r\n    }\r\n}\r\n",
  "sourcePath": "D:\\working\\bitbucket\\zblockchain\\ethereumcodes\\windows\\truffle\\examples\\MicropaymentChannel\\contracts\\ReceiverPays.sol",
  "compiler": {
    "name": "solc",
    "version": "0.4.24+commit.e67f0147.Emscripten.clang"
  },
  "schemaVersion": "2.0.1",
  "updatedAt": "2018-12-04T02:08:32.570Z"
}